:020000040800F2
:10000000581E0020B9010008093700089936000879
:1000100000000000000000000000000000000000E0
:10002000000000000000000000000000693A000825
:1000300000000000000000001D380008553B0008CB
:10004000E901000800000000E9010008E9010008DA
:10005000E9010008752F0008BB2F000801300008D7
:1000600000000000E9010008E9010008E9010008BA
:10007000E9010008E9010008E901000800000000AA
:10008000753C00080000000000000000D53B00089F
:10009000FD3B0008253C00084D3C0008E901000834
:1000A000E9010008E9010008E9010008753D0008C0
:1000B000F13D000800F002F800F036F80CA030C85E
:1000C000083824182D18A246671EAB4654465D46D4
:1000D000AC4201D100F028F87E460F3E0FCCB64668
:1000E0000126334200D0FB1AA246AB4633431847E1
:1000F00084490000A44900000023002400250026B4
:10010000103A01D378C1FBD8520700D330C100D5D3
:100110000B6070471FB50098019900F0B2FA00F02B
:10012000F3F81FBD10B510BD00F004FB1146FFF73A
:10013000F1FF04F093F900F01CFB03B4FFF7F2FFAA
:1001400003BC03F0ECFE000030B40C490C684A68B4
:1001500023681068C0181060241D121D8C4207D23D
:100160008A4208D20C604A6030BC400040087047A8
:100170000C00DC3CF6E70A00DC3AF3E7EC0900206F
:1001800070B505460C46164602E00FCC0FC5103E72
:10019000102EFAD2082E02D303CC03C5083E042E3B
:1001A00007D301CC01C5361F03E021782970641CF8
:1001B0006D1C761EF9D270BD0F4880F308880F4879
:1001C0000168090E0E4A914205D10E480E490160A0
:1001D0000E480F4901600F4880470F480047FEE76F
:1001E000FEE7FEE7FEE7FEE7FEE700000B480C49EE
:1001F0000C4A0D4B70470000581E00200400000000
:100200001F00000018100240010000000000014023
:1002100000000000593B0008B5000008580A002003
:10022000581E0020581A0020581A0020704770B538
:10023000064600F009FA056830460B30C408E400B1
:10024000B44201D8002070BD68682A46002818D042
:100250000168A14211D30B46214608318B4208D3D5
:10026000436801194B6003681B1B0B6051600460FD
:1002700001E041685160001D70BD024640680028E1
:10028000E6D12146284600F0E7F90028DCD170BD10
:1002900070B50446051F00F0D7F90068002C1AD08D
:1002A000446801E020466468002C01D0AC42F9D3D8
:1002B00001680A18AA4204D12A6805468918016013
:1002C00000E0456028684119A14205D16168696074
:1002D00021684018286070BD6C6070BD0B4A30B555
:1002E00011460B4C60310B46DC3B0CC1372106E05C
:1002F000020C8D0012185A51064A504300190A4642
:10030000491E002AF4DC30BD0120E7E78C090020FB
:10031000E119D666CD0D0100401ECAB24178401CDD
:100320008A4202D00029F9D10020704730B5054635
:100330000B462A461C781078521C5B1C002801D002
:10034000A042F7D0002C03D0002802D06D1CEFE7AC
:10035000284630BD30B5441C03E00178401C00291C
:100360000DD08107F9D10B4BDD0104C8D11A91439F
:100370002940FAD0001B0A0603D0C01E30BD001B66
:1003800030BD0A0401D0801E30BD0902FCD0401EE1
:1003900030BD000001010101F8B5042A2CD3830708
:1003A00012D00B78491C0370401C521E83070BD0DF
:1003B0000B78491C0370401C521E830704D00B7835
:1003C000491C0370401C521E8B079B0F05D0C91A95
:1003D000DF002023DE1B08C90AE0FFF7D1FEF8BDCD
:1003E0001D4608C9FD401C46B4402C4310C0121FD6
:1003F000042AF5D2F308C91A521EF0D40B78491C0E
:100400000370401C521EEAD40B78491C0370401C38
:10041000012AE4D409780170F8BD01E004C0091F85
:100420000429FBD28B0701D50280801CC90700D0AC
:100430000270704700290BD0C30702D00270401C25
:10044000491E022904D3830702D50280801C891E1D
:10045000E3E70022EEE70022DFE70000024670B586
:100460000A4392072AD11E4DEE0104C808C9541B45
:100470009443344017D0D0B2D9B2401A2106014378
:1004800010D190B299B2401A210401430AD110024E
:100490001902000A090A401A2102014302D1100E72
:1004A000190E401A70BD9A42DFD010BA19BA8842AC
:1004B00001D9012070BD0020C04370BD02780B78C7
:1004C000401C491C002A09D09A4207D102780B78B7
:1004D000401C491C002A01D09A42EFD0D01A70BDAE
:1004E00001010101002203098B422CD3030A8B4234
:1004F00011D300239C464EE003460B433CD400221C
:1005000043088B4231D303098B421CD3030A8B422D
:1005100001D394463FE0C3098B4201D3CB01C01AFB
:10052000524183098B4201D38B01C01A52414309C6
:100530008B4201D34B01C01A524103098B4201D3B4
:100540000B01C01A5241C3088B4201D3CB00C01A21
:10055000524183088B4201D38B00C01A5241430899
:100560008B4201D34B00C01A5241411A00D20146BE
:100570005241104670475DE0CA0F00D04942031057
:1005800000D34042534000229C4603098B422DD3A6
:10059000030A8B4212D3FC22890112BA030A8B424E
:1005A0000CD3890192118B4208D3890192118B429D
:1005B00004D389013AD0921100E08909C3098B4222
:1005C00001D3CB01C01A524183098B4201D38B0165
:1005D000C01A524143098B4201D34B01C01A524108
:1005E00003098B4201D30B01C01A5241C3088B424D
:1005F00001D3CB00C01A524183088B4201D38B0038
:10060000C01A5241D9D243088B4201D34B00C01AC1
:100610005241411A00D20146634652415B101046D6
:1006200001D34042002B00D54942704763465B101E
:1006300000D3404201B50020C046C04602BD70470D
:10064000704770477047000000487047FC09002061
:10065000704770477047704738B504460A46002017
:100660006946C046C046002805D00246204600998B
:1006700000F040F8012038BD10B5012000F054F81A
:1006800010BDF8B5C046C046054600200C461020F7
:10069000C0460646A819A0420DD932466946002038
:1006A000C046C046070001D100F03EF80098A042C5
:1006B00000D00546C419FFF7C7FFF61D07460560C1
:1006C000F008C0004619284600F008F8B44204D0EB
:1006D00031463868A21B00F00DF8F8BD002101601A
:1006E00041608060704710207047000000487047EC
:1006F000F409002010B50346406801E00346406855
:10070000002801D08842F9D31868C3188B4206D05C
:10071000CB1CD808C000001D411A521A0146081D02
:100720000A60FFF7B5FD10BD10B500F031F800F01C
:1007300028F810BD7546FFF7D9FFAE46050069469B
:100740005346C008C000854618B020B5FFF74EFDDF
:1007500060BC00274908B6460026C0C5C0C5C0C554
:10076000C0C5C0C5C0C5C0C5C0C5403D49008D4657
:10077000704710B50446C046C0462046FFF7DDFC72
:1007800010BD10B5002801D003F0C9FB10BD00005A
:1007900010B5012805D0002103A000F021F80120A8
:1007A00010BD09A1F8E7000053494752544D454D8B
:1007B0003A204F7574206F662068656170206D6502
:1007C0006D6F7279000000003A2048656170206DFD
:1007D000656D6F727920636F7272757074656400F5
:1007E00070B505460C460A2000E06D1C03F09AFB2C
:1007F000002D06D028780028F7D102E0641C03F011
:1008000091FB002C02D020780028F7D10A2003F0B9
:1008100089FB70BD30B58C180278401C13071B0F84
:1008200001D10378401C120906D10278401C03E074
:100830000578401C0D70491C5B1EF9D101E00B705E
:10084000491C521EFBD1A142E6D3002030BD10B599
:100850000B460021846A1C43846200BF0C4614438B
:100860002146416110BD002904D0826801231A434A
:10087000826003E0826802231A43826070470000AE
:1008800010B504460548844207D10121401503F004
:10089000A5F80021601503F0A1F810BD0024014067
:1008A00030B501460020002200238C680125ED07A9
:1008B0002C438C6000BF8C68E30FDB07521C0F24B5
:1008C0002403A24201D0002BF5D18C68E40FE40789
:1008D000002C01D1086C00E0002030BD0146086CFE
:1008E00080B2704730B50246002000230124240660
:1008F0000C40002C05D0946801252D06AC432346FE
:1009000000E013681C460C40002C01D0012000E0E0
:10091000002030BD10B50022C268084B1A400C7987
:1009200064030B6823438C682343CC6823430C691E
:1009300023434C6923431A43C26010BD03D2FFFF17
:1009400081680422114381607047002101600171B8
:100950008160C16001614161704700000021044A6B
:10096000116000BF024909688142FBD37047000053
:10097000B8070020F8B504460D466A460121490330
:1009800009A001F025F869460888FFF7A7FCFFF7E2
:10099000DBFB0746281B411C3846FFF7ADFD081955
:1009A000C6B23046F8BD000072616E6400000000FF
:1009B000FFB583B004460E4617460025022E3FD1F0
:1009C000042C03DC002C01D0092C02D1002007B03C
:1009D000F0BD00205D49087048705D484860022005
:1009E0000872601EC5B25B48005D69005A4A5054E7
:1009F000012C06D0022C0AD0032C0ED0042C18D1C6
:100A000011E004206900544A8918487013E0052059
:100A10006900514A891848700DE0062069004E4A65
:100A20008918487007E0072069004B4A8918487008
:100A300001E00020CBE700BF012048494855C6E748
:100A4000032E41D1082C01DC052C01DA0020BEE781
:100A5000002043490870487008464760601FC5B2CF
:100A60003C48005DE9003F4A50540020E9008918E5
:100A70008870E90089184860052C06D0062C0AD039
:100A8000072C0ED0082C18D111E00320E900354ABC
:100A90008918487013E00420E900324A8918487028
:100AA0000DE00220E9002F4A8918487007E0012074
:100AB000E9002C4A8918487001E0002087E700BF50
:100AC00001202949485582E70C2C01DC002C01D17A
:100AD00000207CE71F48015D684601718771002195
:100AE000C1718172301F030003F00BFA0504080C7A
:100AF0001014180000206946487111E00120694671
:100B000048710DE002206946487109E004206946F9
:100B1000487105E005206946487101E0002056E76C
:100B200000BF0021069802F067FE012802D1069856
:100B300000F03EFF0023029A0199069801F092FA14
:100B40000021069802F058FE41E70000C40800208A
:100B5000E40C0000FC4900082005002028050020C6
:100B600014050020A40800201C05002010B5044630
:100B700001220021204602F041FFC0B210BD10B595
:100B8000044602F00FFD00F075FE00F01FF8012C86
:100B900004D100BF02F086FD0028FBD010BD00008C
:100BA00005490870602803D11821044A117001E03A
:100BB0000249087070470000110500201005002050
:100BC00010B50446204602F03DFE10BD38B50020A9
:100BD00000900124640241480078030003F091F979
:100BE00019660E1216661A661E22262A2E32363A0A
:100BF0003E42464A4E52565A5E626600732038495B
:100C0000C87353E074203649C8734FE075203449E7
:100C1000C8734BE05A203249C87347E05B20304923
:100C2000C87343E05C202E49C8733FE05D202C4927
:100C3000C8733BE05E202A49C87337E05F2028492B
:100C4000C87333E060202649C8732FE0612024492F
:100C5000C8732BE077202249C87327E07820204909
:100C6000C87323E076201E49C8731FE08A201C4900
:100C7000C8731BE062201A49C87317E06320184943
:100C8000C87313E064201649C8730FE07C20144930
:100C9000C8730BE065201249C87307E0662010494D
:100CA000C87303E059200E49C87300BF00BF210E6E
:100CB000684601702002010E684641702004010E52
:100CC00068468170C4706946064801F0DDFD04493C
:100CD0000A310846083801F09DFD38BD1005002096
:100CE000F404002007050020FEB505466F6CEC6C8F
:100CF0002E6D4021885D716C8A68002190470AE062
:100D00004022905D726C516888477D21C9008842FD
:100D100001D90120FEBD4822105D626CD168884770
:100D20000028EDD04822D05D7A6CD1688847002831
:100D3000E6D0E86B0068012810D104214920015554
:100D400008222146483101A8FFF726FB606C0068A5
:100D50000090009A02990198904709E0E86B0068BA
:100D6000002805D14821085D616C0A69002190477F
:100D70004022905D726C516888470290FFF7AEFA8E
:100D8000FFF7E2F98006800E401C014602902846DB
:100D900000F0B3F8E86B0068012810D10121492068
:100DA000015508222146483101A8FFF7F5FA606C89
:100DB00000680090009A02990198904709E0E86B5A
:100DC0000068002805D14821085D616C0A6901218D
:100DD00090474021885D716C8A68002190470AE045
:100DE0004022905D726C516888477D21C90088421D
:100DF00001D901208EE74822105D626CD1688847D6
:100E00000028EDD04822D05D7A6CD1688847002850
:100E1000E6D0E86B0068012810D104214920015573
:100E200008222146483101A8FFF7B6FA606C006835
:100E30000090009A02990198904709E0E86B0068D9
:100E4000002805D14821085D616C0A69002190479E
:100E500000205FE770B505460E46EC6C002E05D00D
:100E6000606C012182692046904704E0606C00219B
:100E700082692046904770BDFEB505462E46F46C4B
:100E800001214920015508222146483101A8FFF7D8
:100E900083FA606C00680090009A0299019890476C
:100EA000746C01214920015508222146483101A8CE
:100EB000FFF772FA606C00680090009A029901983E
:100EC0009047B46C01214920015508222146483140
:100ED00001A8FFF761FA606C00680090009A02991F
:100EE00001989047376D4022D05D7A6C1169884730
:100EF0000120FEBD03460120704770B505460E4631
:100F00002C6D4021085D616C8A680021904700BF0C
:100F10004022105D626C51688847B042F8D370BDC2
:100F2000FEB50446656CA66CE76CE06B00680128B2
:100F300030D101214920C15508223946483101A844
:100F4000FFF72AFA786C00680090009A02990198DD
:100F5000904701214920415508222946483101A8DE
:100F6000FFF71AFA686C00680090009A02990198DD
:100F7000904704214920815508223146483101A873
:100F8000FFF70AFA706C00680090009A02990198C5
:100F9000904715E0E06B0068002811D14821C85D3A
:100FA000796C0A69012190474821485D696C0A699A
:100FB000012190474821885D716C0A6900219047A2
:100FC0000020FEBD70B504466578A900094A505856
:100FD000094900F0FBF800280AD1A800054A10587A
:100FE0004030007811308000044A11580248884788
:100FF00070BD0000D008002030050020944A000891
:10100000F3B585B007463D460698002802D00698FD
:10101000012803D10698E96B086002E00020E96B23
:101020000860E86B0068012853D1EC6C4821085D2A
:10103000616C0A69002190474821085DC117090FBA
:10104000091809110901411A89005F4A57506C6C4F
:101050004821085D616C0A6900219047AC6C482109
:10106000085D616C0A6900219047EC6C0121492000
:10107000015508222146483102A8FFF78DF9606C1E
:1010800000680190019A0399029890476C6C0121C5
:101090004920015508222146483102A8FFF77CF972
:1010A000606C00680190019A039902989047AC6CBB
:1010B00004214920015508222146483102A8FFF7A2
:1010C0006BF9606C00680190019A0399029890474F
:1010D0004BE0E86B0068002847D1EC6C0521492003
:1010E000015508222146483102A8FFF755F9606CE6
:1010F00000680190019A0399029890476C6C052151
:101100004920015508222146483102A8FFF744F939
:10111000606C00680190019A039902989047AC6C4A
:1011200005214920015508222146483102A8FFF730
:1011300033F9606C00680190019A03990298904716
:101140006C6C4821085D616C0A6901219047AC6CA8
:101150004821085D616C0A6900219047EC6C4821C8
:10116000085D616C0A69012190472E6D706C3146F3
:1011700048310268304690474021885D716CCA68EA
:1011800001219047EC6C01216846017400214174F3
:1011900001218174032204A920465030FEF7F0FF9C
:1011A000606C04A94269204690474821085DC11738
:1011B000090F091809110901411A8900024A5750FB
:1011C000012007B0F0BD0000D0080020F3B585B0C5
:1011D00000200490059E746CB56CF06C0390376D24
:1011E00000213046FFF736FE039A4032107A039A08
:1011F000526CD168884700286FD10A213046FFF72A
:101200007CFEF06B0068012810D101214920415576
:1012100008222946483101A8FFF7BEF8686C00682B
:101220000090009A02990198904709E0F06B0068DD
:10123000002805D14821485D696C0A690121904761
:1012400000200490B5E04021C85D796C8A680021D7
:10125000904712E04022D05D7A6C516888477D212A
:10126000C900884209D93046FFF75AFE01213046AD
:10127000FFF7F0FD012007B0F0BD4822105D626C61
:10128000D16888470128E5D0F06B0068012825D196
:1012900004214920015508222146483101A8FFF7C1
:1012A0007BF8606C00680090009A02990198904762
:1012B00001214920415508222946483101A8FFF75C
:1012C0006BF8686C00680090009A0299019890474A
:1012D00019213046FFF711FE14E06FE0F06B006853
:1012E00000280FD14821085D616C0A6900219047F0
:1012F0004821485D696C0A690121904719213046EF
:10130000FFF7FBFD069800784006010E0698017075
:101310004822505D6A6CD16888470699097808436D
:1013200006990870069800782D490870F06B0068DF
:10133000012810D1012149200155082221464831B8
:1013400001A8FFF729F8606C00680090009A0299E4
:101350000198904709E0F06B0068002805D148210A
:10136000085D616C0A69012190474021C85D796C74
:101370008A680021904711E04022D05D7A6C516864
:1013800088477D21C900884208D93046FFF7C8FD4B
:1013900001213046FFF75EFD01206CE74822105D19
:1013A000626CD16888470028E6D00498401CC0B21F
:1013B00004900498082800DA45E708E03046FFF773
:1013C000AFFD01213046FFF745FD012053E73046D0
:1013D000FFF7A6FD01213046FFF73CFD00204AE75C
:1013E00031050020F3B585B0064600200490746CEA
:1013F000B56CF76C306D0390F06B0068012830D14C
:1014000004214920C15508223946483101A8FEF778
:10141000C3FF786C00680090009A02990198904789
:1014200001214920015508222146483101A8FEF733
:10143000B3FF606C00680090009A02990198904791
:1014400001214920415508222946483101A8FEF7CB
:10145000A3FF686C00680090009A02990198904779
:1014600015E0F06B0068002811D14821C85D796C47
:101470000A69002190474821085D616C0A690121D1
:1014800090474821485D696C0A690121904703999A
:10149000403108780399496C8A680021904710E030
:1014A000039A40321078039A526C516888477D2124
:1014B000C900884205D93046FFF732FD012007B048
:1014C000F0BD4822505D6A6CD16888470028E7D09B
:1014D00000200490B4E080210698084000281FD026
:1014E000F06B0068012810D10121492041550822E4
:1014F0002946483101A8FEF74FFF686C006800904C
:10150000009A02990198904729E0F06B0068002842
:1015100025D14821485D696C0A69012190471EE088
:10152000F06B0068012810D10421492041550822A0
:101530002946483101A8FEF72FFF686C006800902B
:10154000009A02990198904709E0F06B0068002822
:1015500005D14821485D696C0A69002190470698C9
:101560004006000E0690F06B0068012810D104219F
:101570004920015508222146483101A8FEF70CFFF9
:10158000606C00680090009A02990198904709E009
:10159000F06B0068002805D14821085D616C0A697C
:1015A0000021904719213046FFF7A7FCF06B006837
:1015B000012810D101214920015508222146483136
:1015C00001A8FEF7E9FE606C00680090009A02999D
:1015D0000198904709E0F06B0068002805D1482188
:1015E000085D616C0A69012190470498072803DAB5
:1015F00019213046FFF781FC03994031087803999F
:10160000496C8A68002190470FE0039A40321078B5
:10161000039A526C516888477D21C900884204D9D9
:101620003046FFF77DFC012049E74822105D626CDF
:10163000D16888470028E8D00498401CC0B20490C4
:101640000498082800DA46E7F06B0068012838D1D2
:1016500001214920415508222946483101A8FEF7B9
:101660009BFE686C00680090009A02990198904770
:1016700005213046FFF741FC04214920015508228D
:101680002146483101A8FEF787FE606C0068009093
:10169000009A02990198904702213046FFF72DFCED
:1016A00001214920C15508223946483101A8FEF7D9
:1016B00073FE786C00680090009A02990198904738
:1016C0001DE0F06B0068002819D14821485D696C65
:1016D0000A69012190470A213046FFF70EFC482194
:1016E000085D616C0A690021904702213046FFF7CE
:1016F00004FC4821C85D796C0A69012190470020EB
:10170000DDE6FEB506460F46154600240097019615
:1017100000210198FFF79EFB0198FFF7E5FA0128E9
:1017200005D101210198FFF795FB0020FEBD0024A3
:1017300018E0009801780198FFF754FE012805D1C0
:1017400001210198FFF786FB2046EFE70098401C37
:101750000090681EA04203D950210198FFF7CDFBED
:10176000601CC4B2AC42E4D30198FFF7D9FB01215D
:101770000198FFF76FFB2046D8E70000FFB587B060
:10178000109E37463046FEF7E5FDC0B206900020B9
:10179000059004900390029001905420FEF747FDBD
:1017A00005462C46069838182038C07F30280CDDB6
:1017B000069838182038C07F392806DA0698381875
:1017C0002038C07F3038C0B2059004A9079800F0D7
:1017D0009FFF032801D10BB0F0BD03A9089800F0CA
:1017E00097FF032800D1F6E702A9099800F090FFBF
:1017F000032800D1EFE701A90A9800F089FF032828
:1018000000D1E8E7049868640398A8640298E86443
:1018100001982865092020701148A0621148E062F3
:1018200000202063104860631048A0631048E06304
:10183000A460002060604021059808550C48E063D2
:101840003046FEF787FD02463146009020461030B4
:10185000FEF7A2FD3146204601F004F8BBE7000088
:1018600001100008790E000803170008F50E0008A3
:101870003405002000B595B0364903C91491139082
:101880003449083103C9129111903249103103C90A
:1018900010910F902F4818300268416880680C92B0
:1018A0000D910E902B48243000680B90294A283265
:1018B00007CA08AB07C3274A343207CA05AB07C3B8
:1018C000244940314A68086889680392049102906B
:1018D000002321A0149A139900F0C4FB002320A038
:1018E000129A119900F0BEFB002320A0109A0F99C4
:1018F00000F0B8FB20A005A90EC900F059FD20A0FA
:1019000008A90EC900F054FD20A002A90EC900F0DC
:101910004FFD00200BA9009101901FA00CA90EC93A
:1019200000F002FA1EA019A310A20DA100900AA0B7
:10193000FFF724FF002110A001F05EFF002118A096
:1019400001F05AFF08A8417B13A001F055FF15B024
:1019500000BD0000B04900087262315F636C6B002B
:101960007262315F64617461000000007262315F15
:10197000627573790000000074696D65723136001C
:101980007262315F74696D65723300007262315F3B
:1019900074696D657231370072616E640000000019
:1019A00052756262657262616E647331000000009C
:1019B00038B50446002000906946204600F0A8FE95
:1019C000022803D10098C16A884738BD0020FCE78F
:1019D000F8B504460D46164600200090694620469C
:1019E00000F096FE022805D1009832462946836B06
:1019F0009847F8BD0020FCE7F8B505460C461646AA
:101A000000962F460F200003204001214903401A71
:101A100007D1E1B2786CC2683846904700990880D7
:101A200001E00720F8BD00BF0120FBE770B50446C8
:101A30002546686CFF218268284690472846FEF7B5
:101A400027FC012070BD70B504460D462646E9B25C
:101A5000706C42683046904770BD70B504462546AC
:101A6000686C8168284688472846FEF711FC0120EB
:101A700070BDF7B586B0144626463746B01D0590B2
:101A8000707A0490069D0798002804D001280FD092
:101A900002281FD118E00822394602A8FEF77CFC74
:101AA000686C00680190019A03990298904711E0D0
:101AB0000322214628465030FEF76EFC686C4269CE
:101AC00028460599904700BF686C826928460499AA
:101AD000904700BF00BF012009B0F0BD70B50446BB
:101AE0000E462546686C314642682846904770BDD0
:101AF000FEB505460F462C464B20005D002805D15B
:101B00004822105D626CD1688847FEBD08222146DC
:101B100048316846FEF740FC606CC6690199009840
:101B2000B047F2E7FEB5054616462C464B20005D51
:101B3000002806D1F1B24823185D636C1A699047FA
:101B4000FEBDB0B208222146483102906846FEF739
:101B500023FC606C076A684607C8B847F0E770B5B1
:101B6000044625464022505D6A6C11698847284624
:101B7000FEF78EFB012070BDF8B505460E461746F0
:101B80002C46002E02D0012E12D108E0002149205F
:101B90000155606C394602682046904708E00121F3
:101BA00049200155606C394602682046904700BFC5
:101BB00000BF0120F8BD70B504460D462646E9B2C7
:101BC0004023985D736CDA689047012070BDF8B5CA
:101BD00004460E46174625464022505D6A6C516801
:101BE0008847F8BDF8B504460F46154626464021FD
:101BF000885D716C8A6829469047F8BD02460120CD
:101C000070470000FEB505460F4600200290019087
:101C10004920405D002804D0012805D0022809D1C0
:101C200005E0FF20019007E03C48019004E03C48BB
:101C3000019001E00E20FEBD00BF5020405D002855
:101C400004D0012804D0022806D103E0002605E0D4
:101C5000062603E0072601E00D20ECE700BF3B006D
:101C600002F04FF910090B0D0F11131517191C1F56
:101C70002225282B2E31012427E0022425E00424EC
:101C800023E0082421E010241FE020241DE040244C
:101C90001BE0802419E0FF24013416E001246402D3
:101CA00013E00124A40210E00124E4020DE0012469
:101CB00024030AE00124640307E00124A40304E0F0
:101CC0000124E40301E00F20B5E700BF32462146BE
:101CD0001448FEF7BCFD1348846200BF012111487F
:101CE000FEF700FE0028F9D00E48FEF729FE00BFDF
:101CF00004210C48FEF7F6FD0028F9D00948FEF74C
:101D0000EDFD0290E96C029A514308460199FEF7F5
:101D1000F3FB80B2009000988DE70000FF03000005
:101D2000FF0F000000240140FFB59DB005460020D4
:101D30001C90012401201B902846FEF70BFBC6B225
:101D40002F461EA807C812AB07C31848119018A940
:101D5000279808722798420015A82699FEF71CFBC1
:101D600012E0B819001B007830381B9948431C99C1
:101D70004018C0B21C90601CC4B2022C02D10A20D0
:101D80001B9001E064201B90B819001B00783028DC
:101D900004DDB819001B00783928E2DB00231A465D
:101DA0002946684602F0C2F821B0F0BD644A000836
:101DB000FEB504460D46002600216846017181717A
:101DC0000121C171032141714020005D012840D1F2
:101DD000FF2D21D11DE0720021465431885CC117CE
:101DE000090F091809110901421A012191400091B6
:101DF0007200214654318F5CF917090FC919091176
:101E000089020922D2068818694601F06FFB701C0E
:101E1000C6B2AE42DFDB1BE06A0021465431885C6B
:101E2000C117090F091809110901421A012191402E
:101E300000916A00214654318F5CF917090FC919C6
:101E4000091189020922D2068818694601F04EFB61
:101E500001E00B20FEBD00BF0120FBE7FEB50446FC
:101E60000E46002510E06A00214654318F5CF917B8
:101E7000090FC9190A11012149049140084601219D
:101E800001F07CFD681CC5B26820005DA842EADC58
:101E900003216846017100218171C17103214171E3
:101EA00000251DE06A0021465431885CC117090FE6
:101EB000091809110901421A0121914000916A0093
:101EC000214654318F5CF917090FC919091189028C
:101ED0000922D2068818694601F008FB681CC5B2C1
:101EE0006820005DA842DDDC226DE16CA06C02F090
:101EF000DBFA0120FEBD1CB504464820015D6846A2
:101F00000170012141700199009800F003F801204F
:101F10001CBD000013B582B069460C7AE117090FA9
:101F200009190A110121490491400846012101F0D3
:101F300025FD6946087AC117090F09180911090119
:101F4000421A0121914000916946887B002804D003
:101F5000012806D002280CD107E003206946487109
:101F60000BE001206946487107E00020694648718E
:101F700003E003206946487100BF00BF6846407A0D
:101F8000030001F0BEFF06040A11181E262D0021D1
:101F9000684601718171C17125E0002168460171B7
:101FA00081710121C1711EE00021684601718171BA
:101FB0000221C17117E00121684601718171C1716F
:101FC00011E0012168460171002181710121C17177
:101FD00009E001216846017181710021C17102E0AF
:101FE0000A2004B010BD00BF6846C07A01281ED187
:101FF0006846807A002805D0194A0399029800F0B3
:1020000050F904E000220399029800F04AF9694669
:10201000888900900C7AE117090F091909118902C2
:102020000922D2068818694601F060FA15E0684670
:10203000C07A002811D16A46917A107A00F0FEF831
:102040006A46147AE117090F091909118902092250
:10205000D2068818694601F049FA0120C1E700005C
:10206000FFFF00003FB595B004461D46084811909B
:1020700017991698139112900322294614A8FEF777
:102080008BF92146684602F027F919B030BD0000EF
:102090002C4A0008FEB504460D460121084601F011
:1020A0008DFC48210E5DF117090F89190A110121D4
:1020B000490491400846012101F060FC4822115D6D
:1020C000CA17120F5218121112018A1A022A01DAC3
:1020D00005230CE04822105DC217120F12181211CE
:1020E0001201821A032A01DD072300E006236A4653
:1020F000137068780107090F6846417001218170EB
:1021000001F004FB4822165DF217120F921912110A
:102110001201B21AD1B24822175DFA17120FD21962
:10212000101101F0A3FC4821085DC117090F09181F
:1021300009110901421A01219140019100216846CB
:102140000172287880000830C1B268464172A878D0
:10215000012802D16946887202E00020694688722F
:1021600001A801F03DF80120FEBD7CB504460D46F6
:102170004821085DC117090F091809110901421A00
:102180000121914000910021684601715020005DBD
:1021900080000830C1B268464171857101F020F8B5
:1021A00001207CBD7CB504460D46002D0BD10822D4
:1021B000214648316846FEF7EFF801990098FFF78D
:1021C000A9FE01207CBD012D10D1082221464831F5
:1021D0006846FEF7E1F801990098FFF79BFE21465B
:1021E00050312046FFF756FF0120EBE70620E9E7D4
:1021F00070B504462546E217120F5219121112014A
:10220000A31A01229A4091B22646E217120F9219A0
:10221000121192020923DB06D01801F0B2F970BD49
:1022200013B569460C78E117090F091909118902DC
:102230000922D206881801F0A1F91CBDF3B581B0BE
:1022400004460298002815D02746E217120F1219EB
:1022500012111201A31A01229A4091B2E217120F31
:102260001219121192020923DB06D018009401F012
:1022700094F914E02546E217120F121912111201F7
:10228000A31A01229A4091B22646E217120F1219A0
:10229000121192020923DB06D01801F07CF901200B
:1022A000FEBD37B5144669460D78E917090F49197F
:1022B000091189020922D2068818214601F06FF916
:1022C00001203EBD70B5044601250E2C15D006DC5C
:1022D000002C0BD0012C0AD0032C22D108E00F2CAB
:1022E00010D0102C13D0112C1BD115E01BE01AE0DC
:1022F00000210E4801F0D8FC15E000210C4801F047
:10230000D3FC10E000210B4801F0CEFC0BE00021D3
:10231000094801F0C9FC06E00021084801F0C4FCAE
:1023200001E00B2070BD00BF2846FBE70004004021
:1023300000200040004001400044014000480140AE
:1023400070B505460C4601264020405D0E2815D08C
:1023500006DC00280BD001280AD0032822D108E08F
:102360000F2810D0102813D011281BD115E01BE026
:102370001AE0204607C802F0A1F915E0204607C878
:1023800002F0D4F810E0204607C802F001F90BE093
:10239000204607C802F02EF906E0204607C802F0E2
:1023A0005BF901E00B2070BD00BF3046FBE7000089
:1023B000FFB597B006460020169001240120159025
:1023C0003046FDF7C7FFC7B2354618A807C812AB9D
:1023D00007C32E4811902846FDF7BCFFC7B212E094
:1023E000E819001B007830381599484316994018B1
:1023F000C0B21690601CC4B2022C02D10A20159003
:1024000001E064201590E819001B0078302804DDF5
:10241000E819001B00783928E2DB16980E2815D041
:1024200006DC00280BD001280AD0032822D108E0BE
:102430000F2810D0102813D011281BD115E01CE054
:102440001BE018A807C802F039F916E018A807C859
:1024500002F06CF811E018A807C802F099F80CE037
:1024600018A807C802F0C6F807E018A807C802F0C5
:10247000F3F802E00B201BB0F0BD00BF00231A46AA
:102480003146684602F05AF9F5E70000504A000864
:1024900070B5044600250E2C15D006DC002C0BD0A0
:1024A000012C0AD0032C22D108E00F2C10D0102CC4
:1024B00013D0112C1BD115E01BE01AE00E4801F0DF
:1024C00001FC054615E00D4801F0FCFB054610E057
:1024D0000B4801F0F7FB05460BE00A4801F0F2FB60
:1024E000054606E0084801F0EDFB054601E00B203B
:1024F00070BD00BF2846FBE70004004000200040FC
:1025000000400140004401400048014070B50446CD
:102510000D4601260E2C15D006DC002C0BD0012C0C
:102520000AD0032C22D108E00F2C10D0102C13D08D
:10253000112C1BD115E01BE01AE029460E4801F0D2
:10254000D8FB15E029460D4801F0D3FB10E02946E1
:102550000B4801F0CEFB0BE029460A4801F0C9FB0D
:1025600006E02946084801F0C4FB01E00B2070BDDD
:1025700000BF3046FBE700000004004000200040A0
:1025800000400140004401400048014070B505464C
:102590000C4601260E2D2FD006DC002D0BD0012D70
:1025A0000AD0032D71D108E00F2D44D0102D61D039
:1025B000112DF7D17EE09EE09DE0012C08D1002195
:1025C0004E4801F096FB01214C4801F06DFB12E0F2
:1025D000002C10D10021494801F08BFB0121474814
:1025E00001F062FB0121454801F058FB0122114630
:1025F000424801F074FB7EE0012C08D100214048E4
:1026000001F077FB01213E4801F04EFB12E0002C67
:1026100010D100213A4801F06CFB0121384801F04B
:1026200043FB0121364801F039FB012211463448B1
:1026300001F055FB5FE0012C08D10021314801F089
:1026400058FB01212F4801F02FFB12E0002C10D184
:1026500000212C4801F04DFB01212A4801F024FB08
:102660000121284801F01AFB01221146254801F0FA
:1026700036FB40E0012C09D10021234801F039FB51
:102680000121214801F010FB13E032E0002C10D1B1
:1026900000211D4801F02DFB01211B4801F004FB26
:1026A0000121194801F0FAFA01221146164801F0F9
:1026B00016FB20E0012C08D10021144801F019FB81
:1026C0000121124801F0F0FA12E0002C10D1002193
:1026D0000E4801F00EFB01210C4801F0E5FA012142
:1026E0000A4801F0DBFA01221146084801F0F7FA26
:1026F00001E00B2070BD00BF3046FBE70004004046
:1027000000200040004001400044014000480140DA
:10271000F0B591B005460E463D4810901098041D46
:1027200000200F900E950D9000272846FDF712FE11
:10273000C0B20C90142107A8FDF78DFE142102A849
:10274000FDF789FE5F210E98FDF7E6FD0D900D98CF
:10275000002803D00E990D98401AC7B2002F01D05F
:1027600001200F900F98002813D10FE061680846F0
:1027700010302946FDF772FE002804D160683060F1
:10278000022011B0F0BD606830602468002CEDD1EB
:102790003BE03A46294607A8FDF7FEFD2846FDF72F
:1027A000D9FDC01B401E0090E819411C02A8009AE8
:1027B000FDF7F2FD0DE061680846103007A9FDF74E
:1027C0004DFE002802D16068019004E0606801902D
:1027D0002468002CEFD100BF002C01D10320D0E7EA
:1027E0000198C068041D0EE061680846103002A917
:1027F000FDF734FE002803D1606830600220C0E796
:10280000606801902468002CEED10320B9E7000035
:102810003805002070B586B005460E46182168467A
:10282000FDF719FE00240C220D49684600F0A8FDB2
:1028300000BF05E060006946085C2855601CC4B212
:10284000072CF7DB002406E0E01D40006946085C29
:102850003055601CC4B2042CF6DB06B070BD00001D
:1028600000F0000838B505460C4600200090694687
:102870002046FFF74DFF022800D138BD281D0099E2
:1028800048600420F9E7000070B58CB006460D469C
:10289000182106A8FDF7DFFD18216846FDF7DBFDCE
:1028A000002400BF05E0305D61006A465052601CA4
:1028B00084B2072CF7DB29786846C18169780182E8
:1028C000A9784182E97881825521C1820C2213497D
:1028D00006A800F055FD6846C08D552805D00C228D
:1028E0000E49684600F00EFD16E000240AE0600084
:1028F00006A9085A61006A46515A884200D003E08E
:10290000601C84B20C2CF2DB00BF0C2C04D00C2217
:102910000249684600F0F6FC0CB070BD00F00008FB
:1029200038B5FA484078FA49097888420BD0F74818
:102930004078FF2807D0F748C0684E2803D0F548F4
:10294000C068502872D1F348C0681B286FD00FDCD4
:10295000401F030001F0D5FA16FEFDFCFBFAF9F862
:10296000F7F6DEDFE1E0F5E3858585858585F4858D
:1029700050285DD012DC3B286FD008DC1C286DD0BD
:102980001D286CD01E286BD01F286AD1CCE13C28B2
:1029900068D04E2813D04F28F7D133E0582871D093
:1029A00006DC55286FD0562872D05728EDD184E028
:1029B0006D286AD0752869D0FF28E6D1A4E00F21E0
:1029C000D4484161002410E0D2488079401CD149AC
:1029D000497C40180019CD49095CCD48801C005D38
:1029E000814200D003E0601C84B2072CECDB00BF06
:1029F000072C03D10221C748416102E00121C548EB
:102A00004161E0E1C3488079401CC249497C4018DB
:102A1000BE49085CBE49C97B884203D10421BD4838
:102A2000416102E00321BB484161CCE10AE249E196
:102A3000B6484078FF282AD1B6484069022812D10A
:102A4000B4488079401CB349497C4018AF49085CC0
:102A5000AF49087001204870B5E187E13DE15FE0D2
:102A600047E1AFE1A3E1AA48407800280FD100BFB9
:102A7000BFF34F8FA848A949C860BFF34F8F00BF6D
:102A800000BFFEE70FE023E002E0E0E046E09AE16D
:102A9000072301229E49891C4E2000F0A3FC1A2125
:102AA0009C4841618FE101231A469949502000F06A
:102AB00099FC1A219748416185E101231A469449FE
:102AC0000F314F2000F08EFC1A21924841617AE1CB
:102AD0000021684601708E48C17B68464170022320
:102AE000012269464D2000F07DFC002168460170FE
:102AF00002214170002301226946022000F072FC8D
:102B00001A21844841615EE101F080FA1A2181486E
:102B1000416158E100BF00BF00BF00BF00BF00BF60
:102B20007C488079401C7B49497C40187749085C87
:102B30007B49087077488079401C7649497C0AE0D7
:102B4000B4E0A8E061E054E048E08CE097E073E096
:102B500067E0FFE0F3E04018401C6C49085C7049F6
:102B600048706C488079401C6A49497C4018801C38
:102B70006649085C6A4988706648C068112816D0A2
:102B800006DC0E280BD00F280DD0102823D112E020
:102B9000132818D01D281AD075281CD10FE01B212E
:102BA0005C48416118E01C215A48416114E0202131
:102BB0005848416110E02121564841610CE01D2137
:102BC0005448416108E01F215248416104E022213C
:102BD0005048416100E000BF00BFF4E04D490223CE
:102BE0000122C8684F4900F0FDFB1A2149484161A4
:102BF000E9E0484901231A46C8684A49491C00F0DF
:102C0000F1FB1A2143484161DDE0424901231A46A4
:102C1000C8684449491C00F0E5FB1A213D48416160
:102C2000D1E03C4902230122C8683E4900F0DAFBAA
:102C30001A2138484161C6E0364902230122C8689A
:102C4000384900F0CFFB1A2132484161BBE03149DD
:102C500001231A46C8683349491C00F0C3FB1A21F6
:102C60002C484161AFE02B4901231A46C8682D4921
:102C7000491C00F0B7FB1A2126484161A3E0254911
:102C800001231A46C8682749491C00F0ABFB1A21EA
:102C90002048416197E01F4903230122C868214968
:102CA00000F0A0FB1A211B4841618CE01949012367
:102CB0001A46C8681B49491C00F094FB1A211548A4
:102CC000416180E0134902230122C868154900F0E0
:102CD00089FB1A210F48416175E00E4901231A460C
:102CE000C8681049491C00F07DFB1A210948416160
:102CF00069E0084901231A46C8680A49491C00F0DE
:102D000071FB1A21034841615DE000007C05002051
:102D1000F40400207C0700200400FA0500ED00E028
:102D20000000002003000020494903230122C86855
:102D3000484900F057FB1A214548416143E04449A6
:102D400001231A46C868434900F04CFB1A21404849
:102D5000416138E03E4901231A46C8683D49491C93
:102D600000F040FB1A213A4841612CE03848807954
:102D7000401C3749497C40183749085C374908707E
:102D800033488079401C3249497C4018401C324904
:102D9000085C324948702E488079401C2C49497C97
:102DA0004018801C2C49085C2C4988700BE028498D
:102DB00003230122C868294900F014FB1A21244882
:102DC000416100E000BF00BF2148407C401C204919
:102DD000497E41181E4880790818C1B21C4881718B
:102DE00080791D49095C1A48C171C0798011022897
:102DF00001D1042003E01648C0798011401C144919
:102E000048740846407E322802DA0846C179417685
:102E10000F488079401C1049095C0D48C160017859
:102E20002038C07F814209DA09482038C17F20302C
:102E30008079081AC1B20648017006E000210448F2
:102E4000017002E00021024801700148406938BD6C
:102E50007C070020030000207C05002006000020E5
:102E600010B5002405212748817180792649095C25
:102E70002448C171C0798011022801D1042003E0E7
:102E80002048C0798011401C1E49487408462038EB
:102E9000C07F401FC1B21B480170407E322802DA59
:102EA0001848C179417617488079401C1649095C59
:102EB0001448C16005212038817702E0FFF730FD1A
:102EC000C4B2104800780028F8D10F480178E030EB
:102ED000C177E0388178FF304170FF384178FF30AA
:102EE0008170E130817FE138C17000210171E130F2
:102EF000817FE13800F0F7FF0349FF310871204678
:102F000010BD00007C0700207C05002070B5054640
:102F10000C4602262878AA2827D12078042802DA2D
:102F200000BF304670BD2078042802D1E8781049EF
:102F300008700F480078062804DB20780C490978CF
:102F4000884202DD00263046ECE7207808490978FF
:102F500088420BD106480178284600F0C4FF0028BB
:102F600001D1012602E0002600E000263046D9E724
:102F70000405002008B5012000F024F900280BD03A
:102F8000002069464870012000F016F96A460021C9
:102F9000012000F045FC0FE0022000F013F90028AA
:102FA0000AD0012069464870022000F005F96A46FF
:102FB0000121084600F034FC08BD08B5042000F0EB
:102FC00001F900280BD0022069464870042000F067
:102FD000F3F86A460221012000F022FC0FE00820ED
:102FE00000F0F0F800280AD0032069464870082055
:102FF00000F0E2F86A460321012000F011FC08BD50
:1030000008B5102000F0DEF800280AD00420694638
:103010004870102000F0D0F86A460421012000F02A
:10302000FFFB202000F0CEF800280BD005206946D9
:103030004870202000F0C0F86A460521012000F009
:10304000EFFBB7E0402000F0BDF800280BD00620D1
:1030500069464870402000F0AFF86A46062101201A
:1030600000F0DEFBA6E0802000F0ACF800280BD0DA
:10307000072069464870802000F09EF86A460721C4
:10308000012000F0CDFB95E0FF20013000F09AF820
:1030900000280BD0082069464870400100F08CF8E9
:1030A0006A460821012000F0BBFB83E001204002BA
:1030B00000F088F800280CD00920694648700120EB
:1030C000400200F079F86A460921012000F0A8FBCF
:1030D00070E00120800200F075F800280CD00A2072
:1030E000694648700120800200F066F86A460A21AD
:1030F000012000F095FB5DE00120C00200F062F8C5
:1031000000280CD00B20694648700120C00200F056
:1031100053F86A460B21012000F082FB4AE00120AF
:10312000000300F04FF800280CD00C2069464870CE
:103130000120000300F040F86A460C21012000F055
:103140006FFB37E00120400300F03CF800280CD072
:103150000D20694648700120400300F02DF86A46B2
:103160000D21012000F05CFB24E00120800300F031
:1031700029F800280CD00E206946487001208003F1
:1031800000F01AF86A460E21012000F049FB11E018
:103190000120C00300F016F800280BD00F2069466C
:1031A00048700120C00300F007F86A460F21012093
:1031B00000F036FB08BD000001494861704700007F
:1031C0000004014001460020044A52690A40002AD6
:1031D00001D0012000E00020704700000004014001
:1031E000002120498279002A35D00A4612680368F6
:1031F0009A430B461A600A46526803689A430B4684
:103200005A60027951180A6803681A430A60154A1D
:10321000926803689A43134B9A601A46D26803680F
:103220009A43104BDA604279102A0CD11A46926800
:1032300003681A430B4B9A601A46D26803681A4314
:10324000084BDA600DE00749427951180A680368B3
:103250001A430A6005E0027951180A6803689A4324
:103260000A6070470004014030B5044604250B2075
:10327000000400F0A3F80546042D17D10C4800699E
:10328000022108430A490861084644610069402157
:103290000843074908610B20000400F08FF8054639
:1032A000034800690221884301490861284630BD6E
:1032B0000020024004200D49C968C907C90F002930
:1032C00001D0012010E00949C968102211400029ED
:1032D00001D0022008E00549C968042211400029F4
:1032E00001D0032000E004207047000000200240CD
:1032F00003480069802108430149086170470000C4
:1033000000200240F8B504460D46164600F044F889
:103310002846FFF7A9FF002709E02188284600F08A
:103320000DF805490870AD1CA41C781C87B2B74283
:10333000F3DBFFF7DDFFF8BD2C05002070B5044678
:103340000D4604260B20000400F038F80646042E33
:1033500011D10A4800690121084308490861258004
:103360000B20000400F02AF80646044800694008D3
:10337000400002490861304670BD00000020024054
:1033800010B503E00B880380891C801C1346541E73
:10339000A2B2002BF6D110BD05480069802108407B
:1033A000002804D003480249486003484860704739
:1033B0000020024023016745AB89EFCD10B50346DD
:1033C0000424FFF777FF044603E0FFF773FF04468A
:1033D0005B1E012C01D1002BF7D1002B00D105245D
:1033E000204610BDFFB581B004461D462B46002087
:1033F0000090012A04D0022A04D0042A08D104E053
:1034000000BF08E04020034305E08020034302E0C2
:103410000120009000BF00BF0098012801D105B035
:10342000F0BD3148867FE1388355E130807F401C14
:10343000C6B22D488677012A09D1877FE138C45565
:10344000E130807F401CC6B22748867735E0022AEB
:1034500012D12004060E2448877FE138C655E1309A
:10346000807F401C204EE13E34541F48807F801CEA
:10347000C6B21D48867720E0042A1ED1200E1A4EBF
:10348000B67F761C184FE13FB8552002070E16484C
:10349000807F801C144EE13E37542004070E1248F2
:1034A000807FC01C37541048807F001D34540E4864
:1034B000807F001DC6B20C488677002109E0029883
:1034C000465C0948807F47180748E138C655481CC4
:1034D000C1B2A942F3DB0448807F4019C6B202485A
:1034E000867700209BE700005C070020F0B50A46C5
:1034F00000210023002400BF3DE001258D402B4624
:1035000015681D402C469C4234D11579012D02D0FE
:103510001579022D16D185684F000326BE40B543AC
:10352000856055794E00B54086683543856085884D
:1035300001268E40B5438580858896798E40B6B247
:103540003543858005684F000326BE40B5430560BE
:1035500015794E00B540066835430560C5684F00D3
:103560000326BE40B543C560D5794E00B540C66858
:103570003543C560491C1029BFD3F0BD0146088AF8
:10358000704702460020138A0B40002B01D0012017
:1035900000E000207047018570478161704781829B
:1035A00070470000FEB5002400BF06E03648201832
:1035B000007B36490855601CC4B20C2CF6DB002495
:1035C00008E0334800783149095D484030490870C7
:1035D000601CC4B20C2CF4DB002408E02B48005D16
:1035E0002B490978484001A90855601CC4B2072C32
:1035F000F4DB6A4651791079FCF77EFF6A46009148
:1036000091790098FCF778FF0F466A46D1793846E1
:10361000FCF772FF0E466A46117A3046FCF76CFFE3
:103620000D466A46517A2846FCF766FF6A46907A4C
:103630004140C8B21649087008460078002814D1E5
:103640006946087949794840694689794840694618
:10365000C97948406946097A48406946497A4840EC
:103660006946897A48400A490870002408E00748FA
:10367000005D07490978484006490855601CC4B2F6
:10368000072CF4DBFEBD0000A0F7FF1F960800200A
:103690000E0500200705002000BFFEE702460020BF
:1036A0007047000070B516484078002825D10421E5
:1036B0000120FDF75FF91421484312490978114AA6
:1036C0001278D2105140C906C90E05464D430A2151
:1036D0000020FDF74FF9142148432818503084B2D8
:1036E0002046FDF73BF900F0F5F8012803D1FF2053
:1036F000F530FDF733F9002070BD0120FCE7000034
:10370000F40400200E05002070470000002182789C
:10371000002A27D0184A03231B02D21803789B10D3
:103720009B00D15802789207D30EFF229A400B4695
:103730009343194642789207120E03789B07DB0EDB
:103740009A4011430C4A03231B02D21803789B10A2
:103750009B00D1500278D306DB0E01229A40064B23
:103760001A6007E00278D306DB0E01229A40024B72
:1037700080331A607047000000E100E07047704736
:103780007047704770477047704770477047704781
:103790007047704770477047704770477047704771
:1037A0007047704770477047704770477047704761
:1037B0007047704770477047704770477047704751
:1037C0007047704770477047704770477047704741
:1037D0007047704770477047704770477047704731
:1037E0007047704770477047704770477047704721
:1037F000704770477047704738B504460D46002043
:10380000009069462046FEF783FF022804D1009805
:103810002946826A904738BD0020FCE770470000C7
:1038200070B504460D4616464C2C07DA6019800028
:10383000034A115830468847012070BD0020FCE73C
:10384000944A000801460878034A1070487850707E
:1038500088789070012070470300002010B51A4846
:10386000806F01282FD118487C30C1781C38017531
:10387000002406E014487C30005D14490855601CA3
:10388000C4B211486030007DA042F3DC0E486030C5
:10389000017D0F48C177122120304161FFF7E0FA26
:1038A0000B48203040691A2805D100F039F8122160
:1038B000074820304161002103486030417501759F
:1038C00000200149886710BD800200207C0500208F
:1038D0005C07002010B5002405210F4881770023E4
:1038E000012221466320FFF77DFD01231A460B4983
:1038F0004F20FFF777FD042301220849491F4C2080
:10390000FFF770FD0723012204490D394E20FFF710
:1039100069FD00F005F810BD5C07002003050020DC
:1039200010B5AA210F48C17700211F3041700E4801
:1039300001780C481F308170E130817FE138C1701F
:1039400000210171E130817FE13800F0CCFA0549B6
:103950001F3108710846E130827F04A000F0AFFA01
:10396000C0B210BD5C060020F404002052756262F3
:10397000657262616E64733100000000002905D039
:10398000054A52690243044B5A6104E0024A5269F3
:103990008243014B5A61704700100240002905D054
:1039A000054AD2690243044BDA6104E0024AD26953
:1039B0008243014BDA61704700100240002905D0B4
:1039C000054A92690243044B9A6104E0024A9269F3
:1039D0008243014B9A61704700100240002905D0D4
:1039E000054AD2680243044BDA6004E0024AD26816
:1039F0008243014BDA60704700100240F8B504467C
:103A00000D4616460020009069462046FEF780FECF
:103A1000022805D1009832462946036B9847F8BD25
:103A20000020FCE770B50446254629780D48427D04
:103A3000407D401CC3B20B4843751C308154C11FEC
:103A4000FFF764FA074960398867FFF707FF054801
:103A50006038806F002803D100210248417501754C
:103A600070BD0000E00200207047000030B5002269
:103A70008B071C0F0F23A3401A460B4B8C10A4007E
:103A80001B599343084C8D10AD00635123468C1095
:103A9000A4001B598C07250F0446AC402343024C5D
:103AA0008D10AD00635130BD0800014070B5064671
:103AB0000C46154629462046FFF7F0FD70BD000074
:103AC0000CB50020019000902048006801210904F5
:103AD00088431E49086011201D4908601B48406842
:103AE0001A494860084640684860084640687F2197
:103AF000C903884315494860084640680521C90440
:103B00000843124948600846006801210906084335
:103B10000E49086000BF0D480068012149060840B1
:103B20000028F8D0094840688008800007494860AC
:103B300008464068022108430449486000BF034822
:103B400040680C2108400828F9D10CBD0010024043
:103B5000002002407047000010B51B48006801219A
:103B60000843194908600846406818490840164942
:103B7000486008460068164908401349086008462E
:103B800000680121890488430F490860084640689D
:103B90003F21090488430C4948600846C06A00096F
:103BA0000001C8620846006BFF2154318843064972
:103BB00008630846406B4008400048630020886066
:103BC000FFF77EFF10BD0000001002400CB8FF0898
:103BD000FFFFF6FE10B50121074800F076F8002837
:103BE00008D00121044800F05CF800220E211A20C0
:103BF000FFF716FE10BD00000020004010B50121A7
:103C0000074800F062F8002808D00121044800F0BD
:103C100048F800220F211A20FFF702FE10BD000015
:103C20000040014010B50121074800F04EF800287F
:103C300008D00121044800F034F8002210211A2095
:103C4000FFF7EEFD10BD00000044014010B501215A
:103C5000074800F03AF8002808D00121044800F095
:103C600020F8002211211A20FFF7DAFD10BD000014
:103C70000048014010B50121074800F026F800284F
:103C800008D00121044800F00CF8002203211A207A
:103C9000FFF7C6FD10BD000000040040CA430282C9
:103CA0007047CA4302827047002904D0028801236A
:103CB0001A43028003E00288014B1A4002807047D9
:103CC000FEFF00000146486A704702460020138A42
:103CD0000B40002B01D0012000E000207047002A9B
:103CE00003D083890B43838102E083898B438381E3
:103CF000704741627047000000220288154B9842CD
:103D000006D001239B07984202D0134B984203D15F
:103D1000124B1A404B881A43114B984203D0114B57
:103D20001A400B891A4302804B68C3620B880385D3
:103D3000084B984208D00C4B984205D00B4B984248
:103D400002D00B4B984201D18B7A038601238382E8
:103D500070470000002C0140000400408FFF00006D
:103D600000100040FFFC0000004001400044014002
:103D70000048014008B500BF08211A4800F069F862
:103D8000002803D00821174800F058F816491548B4
:103D900000F069F8002811D01349124800F050F8DB
:103DA000104800F087F8C1B26846017000218170A8
:103DB000012141706A462E20FFF732FD0B49094868
:103DC00000F051F801280BD10849064800F038F8F6
:103DD0000120694688706A4601212E20FFF720FDE8
:103DE00008BD000000380140050105000401040081
:103DF00008B508210F4800F02CF8002803D008214E
:103E00000C4800F01BF80C490A4800F02CF8002878
:103E10000FD00949074800F013F8064800F04AF8A7
:103E2000C1B268460170022141706A462E20FFF738
:103E3000F7FC08BD00440040050105000162704721
:103E400010B5002300220B0C01249C402246026284
:103E500010BD02460020D3690B40002B01D0012089
:103E600000E00020704770B502460B460024002198
:103E7000002500201E04350ED9B201268E403146A1
:103E8000012D02D11668314006E0022D02D156689C
:103E9000314001E0966831401C0C0126A6403446B2
:103EA000D6693440002903D0002C01D0012000E065
:103EB000002070BD0146888CC005C00D7047F8B564
:103EC00004460D4616460020009069462046FEF73F
:103ED0001FFC022805D1009832462946436B9847BB
:103EE000F8BD0020FCE730B502461078521C0123D3
:103EF00004E01478521C60405C1CA3B28B42F8DBD7
:103F000030BD30B47446641E2578641CAB4204D3C3
:103F1000635D5B00E31830BC18471D46F8E70146B7
:103F200000BF7047014600BF70470000FFB585B075
:103F30000126012004900020039006980290069824
:103F4000FCF708FAC7B2059D6C20FCF770F904462F
:103F50006C212046FCF77FFA44210598FCF77BFA98
:103F60006C2220460599FCF70BF913E00298C01962
:103F7000801B007830380499484303994018C0B238
:103F80000390701CC6B2022E02D10A20049001E0F8
:103F9000642004900298C019801B0078302805DD49
:103FA0000298C019801B00783928DFDB25460B20DA
:103FB00028701348A8621348E862002028636863E9
:103FC0001148A8630898E863402103984855AD60FC
:103FD00000206860142128461030FCF73CFA06984F
:103FE000FCF7B8F902460190284610300699FCF714
:103FF000D3F928460699FEF735FC09B0F0BD00005C
:10400000471A00082D1A0008F919000800B5AE4833
:10401000C07B632877D017DC5D2875D00CDC5A286C
:1040200056D004DC002860D059286ED133E15B28DB
:104030005CD05C28F9D169E05E380300FFF761FFCE
:10404000058795A2B0DA6500752834D00CDC6628A7
:1040500078D004DC642876D06528E6D100E17328A6
:104060000FD07428E1D119E078286DD004DC7628CF
:104070006BD07728D9D1A1E07C2867D08A28D4D109
:10408000B1E001231A4691490E20FFF7ABF9032353
:1040900001228F493C20FFF7A5F911E101231A46BF
:1040A0008A490F20FFF79EF90323012288493C200B
:1040B000FFF798F904E10323012284497520FFF7F3
:1040C00091F90323012282493C20FFF78BF9F7E0A5
:1040D000022301227F490720FFF784F903230122ED
:1040E0007B493C20FFF77EF9EAE0E9E00223012268
:1040F00078490820FFF776F90323012274493C2010
:10410000FFF770F9DCE083E00EE0D8E001231A4607
:104110007049491C6D20FFF765F9032301226C49A2
:104120003C20FFF75FF9CBE001231A466949491C9F
:104130000920FFF757F90323012265493C20FFF7C7
:1041400051F9BDE09AE070E03FE045E07BE00123FB
:104150001A466049491C0A20FFF744F9032301224B
:104160005B493C20FFF73EF9AAE0022301225949AE
:104170000B20FFF737F90323012255493C20FFF7B5
:1041800031F99DE001231A465249491C0C20FFF7E2
:1041900029F9032301224E493C20FFF723F98FE040
:1041A00001231A464B49491C0D20FFF71BF9032335
:1041B000012247493C20FFF715F981E00323012242
:1041C00043493C20FFF70EF97AE0032301224049DE
:1041D0003C20FFF707F973E0032301223C493C2010
:1041E000FFF700F96CE00323012239493C20FFF777
:1041F000F9F865E001231A463649491C1A20FFF7F1
:10420000F1F80323012232493C20FFF7EBF857E095
:10421000022301222F491B20FFF7E4F80323012288
:104220002B493C20FFF7DEF84AE001231A462949D2
:10423000491C1C20FFF7D6F80323012224493C2007
:10424000FFF7D0F83CE001231A4620491D20FFF774
:10425000C9F8032301221E493C20FFF7C3F82FE0D1
:1042600001231A461B49491C1E20FFF7BBF80323F4
:10427000012217493C20FFF7B5F821E00323012272
:1042800014491F20FFF7AEF80323012210493C20F8
:10429000FFF7A8F814E001231A460E490520FFF79E
:1042A000A1F801231A460B49491C0620FFF79AF88A
:1042B0000323012206493C20FFF794F800E000BDEB
:1042C00000BF00BFFBE70000F40400200000002056
:1042D0000600002003000020F3B593B01498089066
:1042E000002007901498FCF735F8C0B20690002023
:1042F000039002905420FBF79AFF0546542128466C
:10430000FCF7A9F844211398FCF7A5F85422284695
:104310001399FBF735FF14210EA8FCF79CF8142124
:1043200009A8FCF798F85F210898FBF7F5FF0290C1
:104330000298002804D008990298401AC0B2079049
:104340000EA8079A1499FCF727F82C460020606005
:10435000AD603C48A0623C48E0623C4820633C4879
:1043600060633C48A06302202070079800281AD0A0
:10437000012003901498FBF7EDFF0799401A401EA7
:10438000019014984018411C09A8019AFCF704F800
:1043900009A8FBF7DFFF024609A90190204610306B
:1043A000FBF7EEFE09E01498FBF7D4FF02460190FC
:1043B000204610301499FBF7EFFF0398002839D0FE
:1043C00005A90EA8FEF7A4F903281DD19820FBF734
:1043D0002EFF0646374698213046FCF73CF804206D
:1043E0003E463870BF6000207860FD600EA8FBF785
:1043F000B1FF02460EA9019038461030FBF7C0FE0F
:104400000EA93846FEF72EFA05A90EA8FEF780F988
:10441000022815D1059E30464830049002E00498E9
:1044200000680490049800680028F8D1201D0499C1
:10443000086005E020461499FEF714FA15B0F0BDA7
:104440000420FBE7DD1A00085B1A0008F11A0008D7
:10445000251B0008731A00087047704708B5002034
:1044600000901220FCF79CFB0120FCF788FB0BA3BB
:10447000012204211046FCF79BFA0DE007A0FCF78F
:1044800075FB012802D16946487002E000206946A8
:1044900048706846FCF794FBF0E7000070697231E1
:1044A000000000007047704707B586B01E48FCF753
:1044B000E7F96846FCF749FA01214802FFF77EFA5E
:1044C0006846407E002802D1102000900CE068462B
:1044D000407E012802D10820009005E06846407E19
:1044E000022801D1002000906846007E002802D1F9
:1044F0006946087105E06846007E012801D16946D9
:104500000871002002900490059069460648FCF767
:1045100001FA0548FCF7C4F901210348FCF7A3F9A7
:10452000012009B000BD00000024014007B584B09F
:1045300001210802FFF732FA002168468181007CE0
:10454000002800D100E010216846C1800598401E77
:1045500002906846407C002801D1302101E04B21C7
:1045600089016846818001A90848FFF7C5FB13212E
:1045700068460170007E0107090F684641700121FD
:104580008170FFF7C3F8012007B000BD0020004094
:1045900007B584B001210804FFF710FA002168462E
:1045A0008181007C002800D100E010216846C18094
:1045B0000598401E02906846407C002801D13021B9
:1045C00001E04B2189016846818001A90848FFF775
:1045D00093FB142168460170007E0107090F6846AD
:1045E000417001218170FFF791F8012007B000BDF3
:1045F0000040014007B584B001214804FFF7DEF90F
:10460000002168468181007C002800D100E0102153
:104610006846C1800598401E02906846407C00288C
:1046200001D1302101E04B2189016846818001A937
:104630000848FFF761FB152168460170007E0107FD
:10464000090F6846417001218170FFF75FF8012072
:1046500007B000BD0044014007B584B001218804C3
:10466000FFF7ACF9002168468181007C002800D169
:1046700000E010216846C1800598401E02906846FF
:10468000407C002801D1302101E04B21890168469E
:10469000818001A90848FFF72FFB162168460170A9
:1046A000007E0107090F6846417001218170FFF704
:1046B0002DF8012007B000BD0048014007B584B0C7
:1046C00001210220FFF76AF9002168468181007C00
:1046D000002800D100E010216846C1800598401EE6
:1046E00002906846407C002801D1302101E04B2136
:1046F00089016846818001A90848FFF7FDFA102169
:1047000068460170007E0107090F6846417001216B
:104710008170FEF7FBFF012007B000BD00040040E0
:104720007047704702490968491C014A1160704787
:10473000B80700207047704770470000FFB595B07C
:1047400001200A90099000200890169807900020F8
:1047500006901698FBF7FEFDC0B20590002002906F
:1047600001905420FBF763FD054654212846FBF7D2
:1047700072FE44211598FBF76EFE542228461599C7
:10478000FBF7FEFC18E00599079841180A98081AEB
:10479000007830380999484308994018C0B2089009
:1047A0000A98401CC0B20A900A98022802D10A2036
:1047B000099001E0642009900599079841180A982A
:1047C000081A0078302807DD0599079841180A98DB
:1047D000081A00783928D6DB142110A8FBF73BFE15
:1047E00014210BA8FBF737FE5F210798FBF794FD18
:1047F00002900298002804D007990298401AC0B28B
:10480000069010A8069A1699FBF7C6FD2C460020C4
:104810006060AD604048A0624048E062404820636C
:10482000404860634048A063072020701898E06308
:10483000402108980855069800281AD001200190B8
:104840001698FBF787FD0699401A401E00901698AF
:104850004018411C0BA8009AFBF79EFD0BA8FBF724
:1048600079FD02460BA9009020461030FBF788FC2A
:1048700009E01698FBF76EFD0246009020461030C6
:104880001699FBF789FD019800283DD004A910A8CE
:10489000FDF73EFF032821D19820FBF7C8FC064610
:1048A00098213046FBF7D7FD374698213046FBF775
:1048B000D2FD04203E463870BF6000207860FD6065
:1048C00010A8FBF747FD024610A9009038461030AB
:1048D000FBF756FC10A93846FDF7C4FF04A910A841
:1048E000FDF716FF022813D1049E3046483003908E
:1048F00002E0039800680390039800680028F8D14C
:10490000201D0399086003E020461699FDF7AAFFD1
:10491000012019B0F0BD0000B71B00085F1B0008A4
:10492000CF1B0008E51B0008791B000870B5044682
:104930002546A878002815D11549886708466030B3
:10494000407DFF21F431884221DA29781048603017
:10495000427D407D401CC3B20D48603043751C3021
:10496000815414E00B4800780E280BD10AA10848A6
:104970007C30FBF7DBFC002801D0012000E00020A8
:10498000084908700120084908740149886770BD0A
:104990000C00002010050020434C4F5345440D0AE5
:1049A00000000000060500206C0200207047000097
:1049B00013010000000000000F01000000000000D3
:1049C000140100000000000000000000FFAA000029
:1049D000020000000101000000000000FFFF0000D5
:1049E00000000000000100000A00000000000000BC
:1049F00000000000FFFF00000000000000040506AA
:104A00000710111E1D17160A09000000090A0000F0
:104A100080250000080000001617000000000000BC
:104A2000010000000000000000000000151F000849
:104A3000A5210008F71E0008F12100083D2200080A
:104A4000952000086B21000821220008A3220008FD
:104A500041230008912400080D2500088D25000839
:104A6000C5220008FD1B00085D1E0008B11D0008DE
:104A7000051C0008C44B0008000000207C05000055
:104A800014080008F04B00087C050020DC1800002A
:104A9000F8000008A54400087D37000889370008A1
:104AA0008B3700088D370008C50F00088F370008C6
:104AB00091370008933700089537000897370008AA
:104AC0007F37000881370008833700085B440008FF
:104AD0008537000887370008AB370008253A0008FB
:104AE000AD370008AF370008B1370008B33700080A
:104AF000B5370008B7370008CB370008CD370008B6
:104B0000DB3700083747000839470008DD37000861
:104B1000DF370008E1370008E3370008E537000811
:104B2000E7370008CF370008D1370008D33700082F
:104B3000D53700082147000823470008254700080B
:104B400035470008D7370008D9370008E93700088B
:104B50002D490008AD490008EB370008ED37000883
:104B6000EF370008F1370008F3370008F537000881
:104B7000F7370008B9370008BB370008BD37000811
:104B8000BF370008C1370008A7440008C337000832
:104B9000C5370008C7370008C9370008993700082B
:104BA0009B3700089D370008594400089F370008CC
:104BB000A1370008A3370008A5370008A737000869
:104BC000A9370008011502FF0101FF017802FF016A
:104BD00001FF01700238FF02140455380500200B54
:104BE0001F737973636F6E74726F6C95AD3A0008C2
:04000005080001B935
:00000001FF
